:0B01E400D287D2A5C2A7D2A6308706A2
:0701EF00C2A5D2A580F72292
:0E01F6008F80C2A7C2A6D2A5C2A51201E42224
:0E0204008F80D2A7C2A6D2A5C2A51201E42205
:100212007F381201F612029A7F381201F612029A00
:100222007F381201F612029A7F061201F612029A22
:090232007F0C1201F612029A225F
:10023B00EBFDEAFCE9F8EDFBECFAE8F9120147609B
:10024B0015EDFBECFAE8F908E870020CEC1201472B
:07025B00FF12020480E02203
:0F026200EF14600B14601114601714601D8022DC
:10027100ED247FFF1201F68019ED24BFFF1201F674
:100281008010ED2493FF1201F68007ED24D3FF12B5
:0902910001F612029A12029A22EF
:10029A00758ACD758CF8D28C308DFDC28CC28D22B8
:0C02AA007F011201F612029A12029A2241
:0A0018003098FDAE998E07C29822C1
:0F02B600D2993099FDC2998F993099FDC2992242
:1002C500EBFDEAFCE9F8D299EDFBECFAE8F912014D
:0302D50047601768
:1002D8003099FDC299EDFBECFAE8F9120147F5995E
:0D02E80008E870E10C80DE3099FDC299221B
:1002F5007508007973E724D075F00AA4FA7974E7D4
:1003050024D02AF53854037003750801E538240B09
:10031500F538AF387E007C017D6D120050E538035D
:1003250003543FFBEF2BFBE43EFAEB2508FDE43AD3
:10033500FCE4F52CF52D8C2E8D2F796FE724D075E7
:10034500F00AA4FA7970E724D02A24FFF530C02CEE
:10035500C02DC02EC02F23232439F812017212009C
:100365003B8C2C8D2D8E2E8F2F7971E724D0FFE4B9
:1003750034FFFEE4FC7D0A1200507972E7FBEF2B97
:10038500FBE43EFAEB24D0FFEA34FFFEE4FCFDC0BB
:100395002CC02DC02EC02F12003B74FFC0E0C0E062
:1003A50014C0E074BFC0E012003B8C2C8D2D8E2E46
:1003B5008F2FAC2CAD2DAE2EAF2F75F01112000383
:1003C5008C2C8D2D8E2E8F2F7975E724D075F00A04
:1003D500A4FA7976E724D02AF538C02CC02DC02E92
:1003E500C02FAF387E007C077D08120050E4FCFD6D
:1003F50012003BC004C005C006C007AF387E007CB4
:10040500077D08120050E4FCFD12003B8C2C8D2D5D
:100415008E2E8F2F7977E724D075F00AA4FA797894
:10042500E724D02AF538C02CC02DC02EC02F75F07A
:100435003CA4FFAEF0E4FCFD12003B8C2C8D2D8E10
:100445002E8F2F7979E724D0FFE434FFFEE4FC7D7D
:100455000A120050E4FCFDC02CC02DC02EC02F1286
:10046500003BC004C005C006C007E4FEFCFD797A68
:10047500E7FF12003B74FFC0E0C0E0C0E074D0C0ED
:0D048500E012003B8C2C8D2D8E2E8F2F222F
:1004C7007F017D011202627B057A04799212023B59
:1004D700AE23AF247C277D1012008C8E258F26E556
:1004E700262430FF120204AC25AD267E277F10128A
:1004F7000050E524C39FF528E5239EF527AE27AFD7
:10050700287C037DE812008C8E258F26E526243073
:10051700FF120204AC25AD267E037FE8120050E5EA
:1005270028C39FF528E5279EF527AE27AF28E4FCCB
:100537007D6412008C8E258F26E5262430FF12025B
:1005470004AC25AD26E4FE7F64120050E528C39F66
:10055700F528E5279EF527AE27AF28E4FC7D0A128C
:10056700008C8E258F26E5262430FF120204AC2549
:10057700AD26E4FE7F0A120050E528C39FF528E563
:10058700279EF527E5282430FF1202047F027D030A
:100597001202627B057A04799F12023B75F00AE525
:1005A7002B842430FF12020475F00AE52B84E5F052
:1005B7002430FF1202047B057A0479A512023B75E9
:1005C700F00AE52A842430FF12020475F00AE52AAE
:1005D70084E5F02430FF1202047F037D02120262D9
:1005E7007B057A0479AD12023B7971870712020401
:1005F700797287071202047F2D120204796F870729
:10060700120204797087071202047F2D1202047FF9
:10061700321202047F301202047973870712020430
:10062700797487071202047F047D041202627B0536
:100637007A0479B512023B79758707120204797635
:1006470087071202047F3A1202047977870712029A
:1006570004797887071202047F3A120204797987AE
:0C06670007120204797A870712020422AD
:050673007A0FDAFE22FF
:0B067800120673D2A1120673C2A12269
:1006830030A102C2A1D2A0D2A1120673C2A0120647
:0406930073C2A1226B
:1006970030A102C2A1C2A0120673D2A1120673D260
:0206A700A0228F
:0506A9008F0B750C0031
:1006AE00E50B548024FF920092A0120678E50BC34E
:1006BE0033F50B050CE50CB408E6D2A0120673D286
:0E06CE00A1120673A2A09200C2A1120673220E
:0306DC00E4FEFF3A
:1006DF00120673D2A1120673A2A09200EEC333FECC
:0E06EF00A200E4332EFEC2A10FBF08E4FF22DA
:0B06FD00D2A0120673120678D2A122D0
:100708008E088F09D2A21206837FA01206A9E4FFE1
:10071800FCAE087DFF12008C1206A9AF091206A9CB
:100728001206837FA11206A9C2A21206DC8F0AD282
:0A073800A21206FD120697AF0A2276
:100742008E088F098D0AD2A21206837FA01206A9F3
:10075200E4FFFCAE087DFF12008C1206A9AF09125D
:1007620006A9AF0A1206A912069712029A12029A53
:0A07720012029A12029A12029A2251
:10077C00759852758921758DFAD28ED2B7D2B5C2C1
:10078C00B6C2B4D2A475350875340F120212120217
:10079C00AA7F027D041202627B057A0479BC1202E4
:1007AC003BE4FEFF1207088F21E4FE7F01120708CD
:1007BC008F22E42521F524E43522F523E4FCFD12F7
:1007CC00029A0DED70010CBC07F5BDD0F27987E4EF
:1007DC00FA7B011202C5120018BF0AFA7F2E120210
:1007EC00047990E4FA7B011202C5120018BF0AFAD0
:1007FC007F2E1202047999E4FA7B011202C51200D1
:10080C0018BF0AFA7F2E120204D2ACD2AF75340193
:07081C00E53370030209013E
:10082300E4F533E534B4050280755011E534146002
:100833002214602F146040146056020901E5342429
:10084300FA606B1470030208E124F87003020901D3
:0308530002090196
:10085600E532B4400280030209017534020209013F
:05086600E532B4400979
:10086B00753403E4F536020901753401020901E51B
:10087B0032B44505753404807DE532B448057534D2
:10088B00058073753401806EE532B47105753406DD
:10089B008064753401805FE532B46205753407807E
:1008AB00557534018050E536B40C005011E53264B7
:1008BB002C600BE5360536246FF8A6328038E5360A
:0308CB00B40C3337
:0B08CE00753702753401E537B40228CD
:1008D900753509E4F53780200536E536B4240385F6
:0708E900322BE536B42511A6
:1008F00085322A753701E537B40203753509753439
:1009000001E53524F8B409004003020AA1FA232ABC
:1009100090091473020AA1020932020A1E020A2C6B
:10092000020A50020A7D020A9B020AA1020A66021A
:02093000081CA1
:100932001202F5D2B4852F90C2B7D2B7AC2CAD2D2E
:10094200AE2EAF2F75F0081200268F90C2B7D2B725
:10095200AC2CAD2DAE2EAF2F75F0101200268F905D
:10096200C2B7D2B7AC2CAD2DAE2EAF2F75F0181288
:1009720000268F90C2B7D2B7796987907973E7243E
:10098200D075F00AA4FA7974E724D02A7969F7C2FB
:10099200B7D2B7796A8790796FE724D075F00AA445
:1009A200FA7970E724D02A796AF7C2B7D2B7796B9D
:1009B20087907971E724D075F00AA479722724D040
:1009C200796BF7C2B7D2B7796C87907975E724D083
:1009D20075F00AA4FA7976E724D02A796CF7C2B7BF
:1009E200D2B7796D87907977E724D075F00AA4FAA7
:1009F2007978E724D02A796DF7C2B7D2B7796E87B2
:100A0200907979E724D075F00AA4797A2724D079ED
:100A12006EF7C2B7D2B775350A02081C20A3057556
:100A2200350B807B75350C02081CC2B5C2B7D2B734
:100A3200859021C2B7D2B7859022E42521F524E41E
:100A42003522F523D2B5C2B475351002081C8521B2
:100A520090C2B7D2B7852290C2B7D2B7C2B47535A9
:100A62000D02081C75350DE4FEFFAD21120742E4AC
:100A7200FE7F01AD2212074202081CE52A600FE543
:030A82002B600BDB
:0B0A85000531E531B41009D2B6800540
:100A9000C2B6E4F53175350E02081C1204C775356F
:040AA0000802081C24
:050AA400C0D0309808ED
:0B0AA900753301C298859932D0D0321D
:100AB4002C7C40404162000500260D0A002487403A
:100AC400404862012B0D0A002490404045710135D5
:100AD4000D0A005499404047610739C0EC0FAD3FFF
:100AE400280000BF1C00220D0A00C03900000000CD
:100AF4000000001F0000003B0000005A00000078C6
:100B040000000097000000B5000000D4000000F3CE
:0C0B140000000111000001300000014E43
:03002300020AA42A
:10049200202020536974652049443A20005649536C
:1004A200493A002020545241433A002044415445E5
:1004B2003A200054494D453A2000506C7A20776129
:0504C20069742E2E00FC
:0300000002017E7C
:10017E007581AEE478FFF6D8FD900AB4E493700270
:10018E00804EC31392D5C31392D1FFA3E493F8B05C
:10019E00D5402130D505E4A393F5A0E420D102A3E8
:1001AE009320D507F608DFF3A380D1F208B800F646
:1001BE0005A080F2E8030303541F2420F9E8540736
:1001CE00F8E4D333B80002800333D8FD47F780D864
:0601DE0075A0FF02077C82
:10014700EB30E11320E00EC083C08289828A83E00E
:10015700D082D08322E3226405700EC083C08289D7
:0B016700828A8393D082D08322E7229B
:0C017200E608FCE608FDE608FEE6FF22B9
:10003B00120138C380021819E637F6DAF9020129E2
:10004B00E0A3FEE0FFEF8DF0A4CFC5F0CCA42CFC19
:09005B00EE60038DF0A42CFE22DE
:10006400C2D1C2D5EE30E707D2D1D2D5120111ECFC
:1000740030E705B2D112011912008C30D1031201FC
:100084001130D50312011922BC000EBE0032EF8DCF
:10009400F08420D226FFADF0227B0075F008EF2F0C
:1000A400FFEE33FEEB33FBEE9DEB9C4005FBEE9D38
:1000B400FE0FD5F0E9E4CECDCBCC227EFF7FFF222C
:1000C400EDB410005022EE8DF084FEEF54F045F0B4
:1000D400C48DF084C4FCEF540FC445F0C48DF08487
:1000E400FFADF0E4CC4FFF22EE8DF08420D2CC7E25
:1000F40008CEC5F0CDCBEF2FFFED33FD10D7079B16
:100104005005D5F0F1229BFD0FD5F0EA22C3E49F00
:0D011400FFE49EFE22C3E49DFDE49CFC225E
:1001210074F9800674FA800274FCD083D082258130
:07013100F581C082C08322AA
:10002600E5F06010C3EC13FCED13FDEE13FEEF13C9
:05003600FFD5F0F022EF
:10000300E5F06010C3EF33FFEE33FEED33FDEC3369
:05001300FCD5F0F02215
:010B200000D4
:0F013800E5D054182407F8E58124FCF97A042255
:00000001FF
